{
  "contractName": "calculator",
  "abi": [
    {
      "inputs": [],
      "stateMutability": "nonpayable",
      "type": "constructor"
    },
    {
      "inputs": [],
      "name": "user",
      "outputs": [
        {
          "internalType": "string",
          "name": "",
          "type": "string"
        }
      ],
      "stateMutability": "view",
      "type": "function",
      "constant": true
    },
    {
      "inputs": [
        {
          "internalType": "uint256",
          "name": "_a",
          "type": "uint256"
        },
        {
          "internalType": "uint256",
          "name": "_b",
          "type": "uint256"
        },
        {
          "internalType": "uint256",
          "name": "_c",
          "type": "uint256"
        },
        {
          "internalType": "uint256",
          "name": "_d",
          "type": "uint256"
        }
      ],
      "name": "set",
      "outputs": [],
      "stateMutability": "nonpayable",
      "type": "function"
    },
    {
      "inputs": [],
      "name": "add",
      "outputs": [
        {
          "internalType": "uint256",
          "name": "",
          "type": "uint256"
        }
      ],
      "stateMutability": "view",
      "type": "function",
      "constant": true
    },
    {
      "inputs": [],
      "name": "sub",
      "outputs": [
        {
          "internalType": "uint256",
          "name": "",
          "type": "uint256"
        }
      ],
      "stateMutability": "view",
      "type": "function",
      "constant": true
    },
    {
      "inputs": [],
      "name": "mul",
      "outputs": [
        {
          "internalType": "uint256",
          "name": "",
          "type": "uint256"
        }
      ],
      "stateMutability": "view",
      "type": "function",
      "constant": true
    }
  ],
  "bytecode": "0x608060405234801561001057600080fd5b5033600460006101000a81548173ffffffffffffffffffffffffffffffffffffffff021916908373ffffffffffffffffffffffffffffffffffffffff160217905550610789806100616000396000f3fe608060405234801561001057600080fd5b50600436106100575760003560e01c80634f2be91f1461005c5780634f8632ba1461007a57806358931c4614610098578063606ce3bf146100b6578063c54124be146100d2575b600080fd5b6100646100f0565b60405161007191906103e8565b60405180910390f35b610082610163565b60405161008f9190610493565b60405180910390f35b6100a0610230565b6040516100ad91906103e8565b60405180910390f35b6100d060048036038101906100cb91906104e6565b6102f1565b005b6100da610313565b6040516100e791906103e8565b60405180910390f35b6000600154600054141580610109575060025460015414155b80610118575060035460025414155b80610127575060005460035414155b6101345761013361054d565b5b60035460025460015460005461014a91906105ab565b61015491906105ab565b61015e91906105ab565b905090565b60603373ffffffffffffffffffffffffffffffffffffffff16600460009054906101000a900473ffffffffffffffffffffffffffffffffffffffff1673ffffffffffffffffffffffffffffffffffffffff16146101f5576040517f08c379a00000000000000000000000000000000000000000000000000000000081526004016101ec9061062b565b60405180910390fd5b6040518060400160405280601181526020017f796f7520617265207468652061646d696e000000000000000000000000000000815250905090565b60003373ffffffffffffffffffffffffffffffffffffffff16600460009054906101000a900473ffffffffffffffffffffffffffffffffffffffff1673ffffffffffffffffffffffffffffffffffffffff16146102c2576040517f08c379a00000000000000000000000000000000000000000000000000000000081526004016102b99061062b565b60405180910390fd5b6003546002546001546000546102d8919061064b565b6102e2919061064b565b6102ec919061064b565b905090565b8360008190555082600181905550816002819055508060038190555050505050565b60006001546000541180156103385750600254600154600054610336919061068d565b115b80156103615750600354600254600154600054610355919061068d565b61035f919061068d565b115b6103a0576040517f08c379a000000000000000000000000000000000000000000000000000000000815260040161039790610733565b60405180910390fd5b6003546002546001546000546103b6919061068d565b6103c0919061068d565b6103ca919061068d565b905090565b6000819050919050565b6103e2816103cf565b82525050565b60006020820190506103fd60008301846103d9565b92915050565b600081519050919050565b600082825260208201905092915050565b60005b8381101561043d578082015181840152602081019050610422565b60008484015250505050565b6000601f19601f8301169050919050565b600061046582610403565b61046f818561040e565b935061047f81856020860161041f565b61048881610449565b840191505092915050565b600060208201905081810360008301526104ad818461045a565b905092915050565b600080fd5b6104c3816103cf565b81146104ce57600080fd5b50565b6000813590506104e0816104ba565b92915050565b60008060008060808587031215610500576104ff6104b5565b5b600061050e878288016104d1565b945050602061051f878288016104d1565b9350506040610530878288016104d1565b9250506060610541878288016104d1565b91505092959194509250565b7f4e487b7100000000000000000000000000000000000000000000000000000000600052600160045260246000fd5b7f4e487b7100000000000000000000000000000000000000000000000000000000600052601160045260246000fd5b60006105b6826103cf565b91506105c1836103cf565b92508282019050808211156105d9576105d861057c565b5b92915050565b7f596f7520617265206e6f74207468652061646d696e0000000000000000000000600082015250565b600061061560158361040e565b9150610620826105df565b602082019050919050565b6000602082019050818103600083015261064481610608565b9050919050565b6000610656826103cf565b9150610661836103cf565b925082820261066f816103cf565b915082820484148315176106865761068561057c565b5b5092915050565b6000610698826103cf565b91506106a3836103cf565b92508282039050818111156106bb576106ba61057c565b5b92915050565b7f56616c756573207365742073686f756c6420626520696e207269676874206f7260008201527f64657220746f2073756274726163740000000000000000000000000000000000602082015250565b600061071d602f8361040e565b9150610728826106c1565b604082019050919050565b6000602082019050818103600083015261074c81610710565b905091905056fea2646970667358221220949569270525fdf429d9809d70d9bf3d1037685bf25549e11a69f18db0f42c6164736f6c63430008130033",
  "immutableReferences": {},
  "source": "//SPDX-License-Identifier: UNLICENSED\n\npragma solidity^ 0.8.17;\n\ncontract calculator {\n\n    uint a;\n    uint b;\n    uint c;\n    uint d;\n    address admin;\n\n    //setting admin through constructor while deploying\n    constructor(){\n        admin = msg.sender;\n    }\n    /*\n           require\n                       */\n    //checking for admin \n    modifier isAdmin { \n        require (admin == msg.sender, \"You are not the admin\");\n        _;\n    }\n    function user() public  view isAdmin returns(string memory){\n        return(\"you are the admin\");\n    }\n    /*\n           assert\n                       */\n    //checking for successive equal numbers\n    modifier isEqual {\n        assert(a != b || b != c || c != d || d != a);\n        _;\n    }\n    /*\n           revert\n                       */\n    //checking for the order of values set \n    modifier inOrder { \n        if(!(a > b && (a-b) > c && (a-b-c) > d)){\n            revert (\"Values set should be in right order to subtract\");\n        }\n        _;\n    }\n\n    //setting the values, only if less than 1000\n    function set (uint _a, uint _b, uint _c, uint _d) public {\n        a = _a;\n        b = _b;\n        c = _c;\n        d = _d;\n    }\n\n    //addition only if isEqual\n    function add() public view isEqual returns(uint){\n        return(a+b+c+d);\n    }\n\n    //subtraction only if inOrder\n    function sub() public view inOrder returns(uint){\n        return(a-b-c-d);\n    }\n\n    //multiplication only if isAdmin\n    function mul() public view isAdmin returns(uint){\n        return(a*b*c*d);\n    }\n}",
  "sourcePath": "/home/monishwar/Desktop/metacrafters-project-2/contracts/calculator.sol",
  "compiler": {
    "name": "solc",
    "version": "0.8.19+commit.7dd6d404.Emscripten.clang"
  },
  "schemaVersion": "3.4.13",
  "updatedAt": "2023-03-22T13:27:52.360Z",
  "networkType": "ethereum",
  "devdoc": {
    "kind": "dev",
    "methods": {},
    "version": 1
  },
  "userdoc": {
    "kind": "user",
    "methods": {},
    "version": 1
  }
}